{
  "_format": "hh-sol-artifact-1",
  "contractName": "FutarchyVoting",
  "sourceName": "contracts/FutarchyVoting.sol",
  "abi": [
    {
      "inputs": [
        {
          "internalType": "address",
          "name": "_votingToken",
          "type": "address"
        }
      ],
      "stateMutability": "nonpayable",
      "type": "constructor"
    },
    {
      "anonymous": false,
      "inputs": [
        {
          "indexed": true,
          "internalType": "bytes32",
          "name": "pollId",
          "type": "bytes32"
        },
        {
          "indexed": false,
          "internalType": "string",
          "name": "action",
          "type": "string"
        },
        {
          "indexed": false,
          "internalType": "uint256",
          "name": "startTime",
          "type": "uint256"
        },
        {
          "indexed": false,
          "internalType": "uint256",
          "name": "endTime",
          "type": "uint256"
        }
      ],
      "name": "PollCreated",
      "type": "event"
    },
    {
      "anonymous": false,
      "inputs": [
        {
          "indexed": true,
          "internalType": "bytes32",
          "name": "pollId",
          "type": "bytes32"
        },
        {
          "indexed": false,
          "internalType": "bool",
          "name": "outcome",
          "type": "bool"
        }
      ],
      "name": "PollResolved",
      "type": "event"
    },
    {
      "anonymous": false,
      "inputs": [
        {
          "indexed": true,
          "internalType": "bytes32",
          "name": "role",
          "type": "bytes32"
        },
        {
          "indexed": true,
          "internalType": "bytes32",
          "name": "previousAdminRole",
          "type": "bytes32"
        },
        {
          "indexed": true,
          "internalType": "bytes32",
          "name": "newAdminRole",
          "type": "bytes32"
        }
      ],
      "name": "RoleAdminChanged",
      "type": "event"
    },
    {
      "anonymous": false,
      "inputs": [
        {
          "indexed": true,
          "internalType": "bytes32",
          "name": "role",
          "type": "bytes32"
        },
        {
          "indexed": true,
          "internalType": "address",
          "name": "account",
          "type": "address"
        },
        {
          "indexed": true,
          "internalType": "address",
          "name": "sender",
          "type": "address"
        }
      ],
      "name": "RoleGranted",
      "type": "event"
    },
    {
      "anonymous": false,
      "inputs": [
        {
          "indexed": true,
          "internalType": "bytes32",
          "name": "role",
          "type": "bytes32"
        },
        {
          "indexed": true,
          "internalType": "address",
          "name": "account",
          "type": "address"
        },
        {
          "indexed": true,
          "internalType": "address",
          "name": "sender",
          "type": "address"
        }
      ],
      "name": "RoleRevoked",
      "type": "event"
    },
    {
      "anonymous": false,
      "inputs": [
        {
          "indexed": true,
          "internalType": "bytes32",
          "name": "pollId",
          "type": "bytes32"
        },
        {
          "indexed": true,
          "internalType": "address",
          "name": "voter",
          "type": "address"
        },
        {
          "indexed": false,
          "internalType": "bool",
          "name": "prediction",
          "type": "bool"
        },
        {
          "indexed": false,
          "internalType": "uint256",
          "name": "amount",
          "type": "uint256"
        }
      ],
      "name": "VoteCast",
      "type": "event"
    },
    {
      "inputs": [],
      "name": "ADMIN_ROLE",
      "outputs": [
        {
          "internalType": "bytes32",
          "name": "",
          "type": "bytes32"
        }
      ],
      "stateMutability": "view",
      "type": "function"
    },
    {
      "inputs": [],
      "name": "AGENT_ROLE",
      "outputs": [
        {
          "internalType": "bytes32",
          "name": "",
          "type": "bytes32"
        }
      ],
      "stateMutability": "view",
      "type": "function"
    },
    {
      "inputs": [],
      "name": "DEFAULT_ADMIN_ROLE",
      "outputs": [
        {
          "internalType": "bytes32",
          "name": "",
          "type": "bytes32"
        }
      ],
      "stateMutability": "view",
      "type": "function"
    },
    {
      "inputs": [],
      "name": "VOTING_PERIOD",
      "outputs": [
        {
          "internalType": "uint256",
          "name": "",
          "type": "uint256"
        }
      ],
      "stateMutability": "view",
      "type": "function"
    },
    {
      "inputs": [
        {
          "internalType": "bytes32",
          "name": "pollId",
          "type": "bytes32"
        },
        {
          "internalType": "bool",
          "name": "prediction",
          "type": "bool"
        },
        {
          "internalType": "uint256",
          "name": "amount",
          "type": "uint256"
        }
      ],
      "name": "castVote",
      "outputs": [],
      "stateMutability": "nonpayable",
      "type": "function"
    },
    {
      "inputs": [
        {
          "internalType": "string",
          "name": "action",
          "type": "string"
        },
        {
          "internalType": "uint256",
          "name": "duration",
          "type": "uint256"
        }
      ],
      "name": "createPoll",
      "outputs": [
        {
          "internalType": "bytes32",
          "name": "",
          "type": "bytes32"
        }
      ],
      "stateMutability": "nonpayable",
      "type": "function"
    },
    {
      "inputs": [],
      "name": "getLastPollId",
      "outputs": [
        {
          "internalType": "bytes32",
          "name": "",
          "type": "bytes32"
        }
      ],
      "stateMutability": "view",
      "type": "function"
    },
    {
      "inputs": [
        {
          "internalType": "bytes32",
          "name": "pollId",
          "type": "bytes32"
        }
      ],
      "name": "getPoll",
      "outputs": [
        {
          "internalType": "string",
          "name": "action",
          "type": "string"
        },
        {
          "internalType": "uint256",
          "name": "startTime",
          "type": "uint256"
        },
        {
          "internalType": "uint256",
          "name": "endTime",
          "type": "uint256"
        },
        {
          "internalType": "uint256",
          "name": "yesMarketPrice",
          "type": "uint256"
        },
        {
          "internalType": "uint256",
          "name": "noMarketPrice",
          "type": "uint256"
        },
        {
          "internalType": "bool",
          "name": "resolved",
          "type": "bool"
        },
        {
          "internalType": "bool",
          "name": "outcome",
          "type": "bool"
        }
      ],
      "stateMutability": "view",
      "type": "function"
    },
    {
      "inputs": [
        {
          "internalType": "bytes32",
          "name": "role",
          "type": "bytes32"
        }
      ],
      "name": "getRoleAdmin",
      "outputs": [
        {
          "internalType": "bytes32",
          "name": "",
          "type": "bytes32"
        }
      ],
      "stateMutability": "view",
      "type": "function"
    },
    {
      "inputs": [
        {
          "internalType": "bytes32",
          "name": "role",
          "type": "bytes32"
        },
        {
          "internalType": "address",
          "name": "account",
          "type": "address"
        }
      ],
      "name": "grantRole",
      "outputs": [],
      "stateMutability": "nonpayable",
      "type": "function"
    },
    {
      "inputs": [
        {
          "internalType": "bytes32",
          "name": "role",
          "type": "bytes32"
        },
        {
          "internalType": "address",
          "name": "account",
          "type": "address"
        }
      ],
      "name": "hasRole",
      "outputs": [
        {
          "internalType": "bool",
          "name": "",
          "type": "bool"
        }
      ],
      "stateMutability": "view",
      "type": "function"
    },
    {
      "inputs": [],
      "name": "pollCount",
      "outputs": [
        {
          "internalType": "uint256",
          "name": "",
          "type": "uint256"
        }
      ],
      "stateMutability": "view",
      "type": "function"
    },
    {
      "inputs": [
        {
          "internalType": "bytes32",
          "name": "",
          "type": "bytes32"
        }
      ],
      "name": "polls",
      "outputs": [
        {
          "internalType": "bytes32",
          "name": "id",
          "type": "bytes32"
        },
        {
          "internalType": "string",
          "name": "action",
          "type": "string"
        },
        {
          "internalType": "uint256",
          "name": "startTime",
          "type": "uint256"
        },
        {
          "internalType": "uint256",
          "name": "endTime",
          "type": "uint256"
        },
        {
          "internalType": "uint256",
          "name": "yesMarketPrice",
          "type": "uint256"
        },
        {
          "internalType": "uint256",
          "name": "noMarketPrice",
          "type": "uint256"
        },
        {
          "internalType": "bool",
          "name": "resolved",
          "type": "bool"
        },
        {
          "internalType": "bool",
          "name": "outcome",
          "type": "bool"
        },
        {
          "internalType": "address",
          "name": "creator",
          "type": "address"
        }
      ],
      "stateMutability": "view",
      "type": "function"
    },
    {
      "inputs": [
        {
          "internalType": "bytes32",
          "name": "role",
          "type": "bytes32"
        },
        {
          "internalType": "address",
          "name": "account",
          "type": "address"
        }
      ],
      "name": "renounceRole",
      "outputs": [],
      "stateMutability": "nonpayable",
      "type": "function"
    },
    {
      "inputs": [
        {
          "internalType": "bytes32",
          "name": "pollId",
          "type": "bytes32"
        }
      ],
      "name": "resolvePoll",
      "outputs": [],
      "stateMutability": "nonpayable",
      "type": "function"
    },
    {
      "inputs": [
        {
          "internalType": "bytes32",
          "name": "role",
          "type": "bytes32"
        },
        {
          "internalType": "address",
          "name": "account",
          "type": "address"
        }
      ],
      "name": "revokeRole",
      "outputs": [],
      "stateMutability": "nonpayable",
      "type": "function"
    },
    {
      "inputs": [
        {
          "internalType": "bytes4",
          "name": "interfaceId",
          "type": "bytes4"
        }
      ],
      "name": "supportsInterface",
      "outputs": [
        {
          "internalType": "bool",
          "name": "",
          "type": "bool"
        }
      ],
      "stateMutability": "view",
      "type": "function"
    },
    {
      "inputs": [
        {
          "internalType": "bytes32",
          "name": "",
          "type": "bytes32"
        }
      ],
      "name": "totalNoStakes",
      "outputs": [
        {
          "internalType": "uint256",
          "name": "",
          "type": "uint256"
        }
      ],
      "stateMutability": "view",
      "type": "function"
    },
    {
      "inputs": [
        {
          "internalType": "bytes32",
          "name": "",
          "type": "bytes32"
        }
      ],
      "name": "totalYesStakes",
      "outputs": [
        {
          "internalType": "uint256",
          "name": "",
          "type": "uint256"
        }
      ],
      "stateMutability": "view",
      "type": "function"
    },
    {
      "inputs": [
        {
          "internalType": "bytes32",
          "name": "",
          "type": "bytes32"
        },
        {
          "internalType": "address",
          "name": "",
          "type": "address"
        }
      ],
      "name": "votes",
      "outputs": [
        {
          "internalType": "bool",
          "name": "prediction",
          "type": "bool"
        },
        {
          "internalType": "uint256",
          "name": "amount",
          "type": "uint256"
        },
        {
          "internalType": "uint256",
          "name": "timestamp",
          "type": "uint256"
        }
      ],
      "stateMutability": "view",
      "type": "function"
    },
    {
      "inputs": [],
      "name": "votingToken",
      "outputs": [
        {
          "internalType": "contract IERC20",
          "name": "",
          "type": "address"
        }
      ],
      "stateMutability": "view",
      "type": "function"
    }
  ],
  "bytecode": "0x60806040523480156200001157600080fd5b5060405162002cea38038062002cea8339818101604052810190620000379190620002b0565b60018081905550620000536000801b33620000cd60201b60201c565b620000857fa49807205ce4d355092ef5a8a18f56e8913cf4a201fbe287825b095693c2177533620000cd60201b60201c565b80600660006101000a81548173ffffffffffffffffffffffffffffffffffffffff021916908373ffffffffffffffffffffffffffffffffffffffff16021790555050620002e2565b620000df8282620000e360201b60201c565b5050565b620000f58282620001d460201b60201c565b620001d057600160008084815260200190815260200160002060000160008373ffffffffffffffffffffffffffffffffffffffff1673ffffffffffffffffffffffffffffffffffffffff16815260200190815260200160002060006101000a81548160ff021916908315150217905550620001756200023e60201b60201c565b73ffffffffffffffffffffffffffffffffffffffff168173ffffffffffffffffffffffffffffffffffffffff16837f2f8788117e7eff1d82e926ec794901d17c78024a50270940304540a733656f0d60405160405180910390a45b5050565b600080600084815260200190815260200160002060000160008373ffffffffffffffffffffffffffffffffffffffff1673ffffffffffffffffffffffffffffffffffffffff16815260200190815260200160002060009054906101000a900460ff16905092915050565b600033905090565b600080fd5b600073ffffffffffffffffffffffffffffffffffffffff82169050919050565b600062000278826200024b565b9050919050565b6200028a816200026b565b81146200029657600080fd5b50565b600081519050620002aa816200027f565b92915050565b600060208284031215620002c957620002c862000246565b5b6000620002d98482850162000299565b91505092915050565b6129f880620002f26000396000f3fe608060405234801561001057600080fd5b50600436106101375760003560e01c80638b87d1af116100b8578063aeefe20d1161007c578063aeefe20d14610384578063b0340123146103a2578063b1610d7e146103c0578063c0fce622146103de578063c7449cb71461040e578063d547741f1461043e57610137565b80638b87d1af146102b657806391d14854146102e65780639207891d146103165780639386775a14610334578063a217fddf1461036657610137565b80632f2ff15d116100ff5780632f2ff15d1461020c57806336568abe1461022857806355458f4a146102445780636fc42b361461027c57806375b238fc1461029857610137565b806301ffc9a71461013c57806322459e181461016c578063236e022d1461018a578063248a9ca3146101a65780632cbbd738146101d6575b600080fd5b61015660048036038101906101519190611787565b61045a565b60405161016391906117cf565b60405180910390f35b6101746104d4565b6040516101819190611803565b60405180910390f35b6101a4600480360381019061019f919061184a565b6104f8565b005b6101c060048036038101906101bb919061184a565b610662565b6040516101cd9190611803565b60405180910390f35b6101f060048036038101906101eb919061184a565b610681565b6040516102039796959493929190611920565b60405180910390f35b610226600480360381019061022191906119f4565b610785565b005b610242600480360381019061023d91906119f4565b6107a6565b005b61025e6004803603810190610259919061184a565b610829565b60405161027399989796959493929190611a43565b60405180910390f35b61029660048036038101906102919190611b2f565b610939565b005b6102a0610c8d565b6040516102ad9190611803565b60405180910390f35b6102d060048036038101906102cb919061184a565b610cb1565b6040516102dd9190611b82565b60405180910390f35b61030060048036038101906102fb91906119f4565b610cc9565b60405161030d91906117cf565b60405180910390f35b61031e610d33565b60405161032b9190611b82565b60405180910390f35b61034e600480360381019061034991906119f4565b610d39565b60405161035d93929190611b9d565b60405180910390f35b61036e610d7d565b60405161037b9190611803565b60405180910390f35b61038c610d84565b6040516103999190611803565b60405180910390f35b6103aa610df7565b6040516103b79190611c33565b60405180910390f35b6103c8610e1d565b6040516103d59190611b82565b60405180910390f35b6103f860048036038101906103f3919061184a565b610e24565b6040516104059190611b82565b60405180910390f35b61042860048036038101906104239190611d83565b610e3c565b6040516104359190611803565b60405180910390f35b610458600480360381019061045391906119f4565b611091565b005b60007f7965db0b000000000000000000000000000000000000000000000000000000007bffffffffffffffffffffffffffffffffffffffffffffffffffffffff1916827bffffffffffffffffffffffffffffffffffffffffffffffffffffffff191614806104cd57506104cc826110b2565b5b9050919050565b7fcab5a0bfe0b79d2c4b1c2e02599fa044d115b7511f9659307cb427695096770981565b7fa49807205ce4d355092ef5a8a18f56e8913cf4a201fbe287825b095693c217756105228161111c565b60006002600084815260200190815260200160002090508060060160009054906101000a900460ff161561058b576040517f08c379a000000000000000000000000000000000000000000000000000000000815260040161058290611e2b565b60405180910390fd5b806003015442116105d1576040517f08c379a00000000000000000000000000000000000000000000000000000000081526004016105c890611e97565b60405180910390fd5b80600501548160040154118160060160016101000a81548160ff02191690831515021790555060018160060160006101000a81548160ff021916908315150217905550827f33b114008e72d718641629602e2bb38017b8d05a31913c6dff882884066f29e68260060160019054906101000a900460ff1660405161065591906117cf565b60405180910390a2505050565b6000806000838152602001908152602001600020600101549050919050565b60606000806000806000806000600260008a815260200190815260200160002090508060010181600201548260030154836004015484600501548560060160009054906101000a900460ff168660060160019054906101000a900460ff168680546106eb90611ee6565b80601f016020809104026020016040519081016040528092919081815260200182805461071790611ee6565b80156107645780601f1061073957610100808354040283529160200191610764565b820191906000526020600020905b81548152906001019060200180831161074757829003601f168201915b50505050509650975097509750975097509750975050919395979092949650565b61078e82610662565b6107978161111c565b6107a18383611130565b505050565b6107ae611210565b73ffffffffffffffffffffffffffffffffffffffff168173ffffffffffffffffffffffffffffffffffffffff161461081b576040517f08c379a000000000000000000000000000000000000000000000000000000000815260040161081290611f89565b60405180910390fd5b6108258282611218565b5050565b600260205280600052604060002060009150905080600001549080600101805461085290611ee6565b80601f016020809104026020016040519081016040528092919081815260200182805461087e90611ee6565b80156108cb5780601f106108a0576101008083540402835291602001916108cb565b820191906000526020600020905b8154815290600101906020018083116108ae57829003601f168201915b5050505050908060020154908060030154908060040154908060050154908060060160009054906101000a900460ff16908060060160019054906101000a900460ff16908060060160029054906101000a900473ffffffffffffffffffffffffffffffffffffffff16905089565b6109416112f9565b60008111610984576040517f08c379a000000000000000000000000000000000000000000000000000000000815260040161097b90611ff5565b60405180910390fd5b6002600084815260200190815260200160002060060160009054906101000a900460ff16156109e8576040517f08c379a00000000000000000000000000000000000000000000000000000000081526004016109df90611e2b565b60405180910390fd5b6002600084815260200190815260200160002060030154421115610a41576040517f08c379a0000000000000000000000000000000000000000000000000000000008152600401610a3890612061565b60405180910390fd5b600660009054906101000a900473ffffffffffffffffffffffffffffffffffffffff1673ffffffffffffffffffffffffffffffffffffffff166323b872dd3330846040518463ffffffff1660e01b8152600401610aa093929190612081565b6020604051808303816000875af1158015610abf573d6000803e3d6000fd5b505050506040513d601f19601f82011682018060405250810190610ae391906120cd565b610b22576040517f08c379a0000000000000000000000000000000000000000000000000000000008152600401610b1990612146565b60405180910390fd5b60405180606001604052808315158152602001828152602001428152506003600085815260200190815260200160002060003373ffffffffffffffffffffffffffffffffffffffff1673ffffffffffffffffffffffffffffffffffffffff16815260200190815260200160002060008201518160000160006101000a81548160ff02191690831515021790555060208201518160010155604082015181600201559050508115610bfb5780600460008581526020019081526020016000206000828254610bef9190612195565b92505081905550610c26565b80600560008581526020019081526020016000206000828254610c1e9190612195565b925050819055505b610c2f83611348565b3373ffffffffffffffffffffffffffffffffffffffff16837f9bc1d007e9f894b0900fab4b7e20029267e704c85851e5470c30a1e1b239e0908484604051610c789291906121c9565b60405180910390a3610c88611424565b505050565b7fa49807205ce4d355092ef5a8a18f56e8913cf4a201fbe287825b095693c2177581565b60046020528060005260406000206000915090505481565b600080600084815260200190815260200160002060000160008373ffffffffffffffffffffffffffffffffffffffff1673ffffffffffffffffffffffffffffffffffffffff16815260200190815260200160002060009054906101000a900460ff16905092915050565b60075481565b6003602052816000526040600020602052806000526040600020600091509150508060000160009054906101000a900460ff16908060010154908060020154905083565b6000801b81565b60008060075411610dca576040517f08c379a0000000000000000000000000000000000000000000000000000000008152600401610dc19061223e565b60405180910390fd5b600260006001600754610ddd919061225e565b60001b815260200190815260200160002060000154905090565b600660009054906101000a900473ffffffffffffffffffffffffffffffffffffffff1681565b6202a30081565b60056020528060005260406000206000915090505481565b60007fcab5a0bfe0b79d2c4b1c2e02599fa044d115b7511f9659307cb4276950967709610e688161111c565b6202a300831115610eae576040517f08c379a0000000000000000000000000000000000000000000000000000000008152600401610ea590612304565b60405180910390fd5b6000428533604051602001610ec5939291906123c9565b60405160208183030381529060405280519060200120905060008442610eeb9190612195565b905060405180610120016040528083815260200187815260200142815260200182815260200160008152602001600081526020016000151581526020016000151581526020013373ffffffffffffffffffffffffffffffffffffffff1681525060026000848152602001908152602001600020600082015181600001556020820151816001019081610f7d91906125a4565b5060408201518160020155606082015181600301556080820151816004015560a0820151816005015560c08201518160060160006101000a81548160ff02191690831515021790555060e08201518160060160016101000a81548160ff0219169083151502179055506101008201518160060160026101000a81548173ffffffffffffffffffffffffffffffffffffffff021916908373ffffffffffffffffffffffffffffffffffffffff1602179055509050506007600081548092919061104490612676565b9190505550817fe83d3ca4399606ef6007e3ef83a0248bac28f2d563b162158d3f1630e114578b87428460405161107d939291906126be565b60405180910390a281935050505092915050565b61109a82610662565b6110a38161111c565b6110ad8383611218565b505050565b60007f01ffc9a7000000000000000000000000000000000000000000000000000000007bffffffffffffffffffffffffffffffffffffffffffffffffffffffff1916827bffffffffffffffffffffffffffffffffffffffffffffffffffffffff1916149050919050565b61112d81611128611210565b61142d565b50565b61113a8282610cc9565b61120c57600160008084815260200190815260200160002060000160008373ffffffffffffffffffffffffffffffffffffffff1673ffffffffffffffffffffffffffffffffffffffff16815260200190815260200160002060006101000a81548160ff0219169083151502179055506111b1611210565b73ffffffffffffffffffffffffffffffffffffffff168173ffffffffffffffffffffffffffffffffffffffff16837f2f8788117e7eff1d82e926ec794901d17c78024a50270940304540a733656f0d60405160405180910390a45b5050565b600033905090565b6112228282610cc9565b156112f557600080600084815260200190815260200160002060000160008373ffffffffffffffffffffffffffffffffffffffff1673ffffffffffffffffffffffffffffffffffffffff16815260200190815260200160002060006101000a81548160ff02191690831515021790555061129a611210565b73ffffffffffffffffffffffffffffffffffffffff168173ffffffffffffffffffffffffffffffffffffffff16837ff6391f5c32d9c69d2a47ea670b442974b53935d1edc7fd64eb21e047a839171b60405160405180910390a45b5050565b60026001540361133e576040517f08c379a000000000000000000000000000000000000000000000000000000000815260040161133590612748565b60405180910390fd5b6002600181905550565b60006005600083815260200190815260200160002054600460008481526020019081526020016000205461137c9190612195565b905060008111156114205780670de0b6b3a764000060046000858152602001908152602001600020546113af9190612768565b6113b991906127d9565b600260008481526020019081526020016000206004018190555080670de0b6b3a764000060056000858152602001908152602001600020546113fb9190612768565b61140591906127d9565b60026000848152602001908152602001600020600501819055505b5050565b60018081905550565b6114378282610cc9565b6114ae57611444816114b2565b6114528360001c60206114df565b6040516020016114639291906128a2565b6040516020818303038152906040526040517f08c379a00000000000000000000000000000000000000000000000000000000081526004016114a591906128dc565b60405180910390fd5b5050565b60606114d88273ffffffffffffffffffffffffffffffffffffffff16601460ff166114df565b9050919050565b6060600060028360026114f29190612768565b6114fc9190612195565b67ffffffffffffffff81111561151557611514611c58565b5b6040519080825280601f01601f1916602001820160405280156115475781602001600182028036833780820191505090505b5090507f30000000000000000000000000000000000000000000000000000000000000008160008151811061157f5761157e6128fe565b5b60200101907effffffffffffffffffffffffffffffffffffffffffffffffffffffffffffff1916908160001a9053507f7800000000000000000000000000000000000000000000000000000000000000816001815181106115e3576115e26128fe565b5b60200101907effffffffffffffffffffffffffffffffffffffffffffffffffffffffffffff1916908160001a905350600060018460026116239190612768565b61162d9190612195565b90505b60018111156116cd577f3031323334353637383961626364656600000000000000000000000000000000600f86166010811061166f5761166e6128fe565b5b1a60f81b828281518110611686576116856128fe565b5b60200101907effffffffffffffffffffffffffffffffffffffffffffffffffffffffffffff1916908160001a905350600485901c9450806116c69061292d565b9050611630565b5060008414611711576040517f08c379a0000000000000000000000000000000000000000000000000000000008152600401611708906129a2565b60405180910390fd5b8091505092915050565b6000604051905090565b600080fd5b600080fd5b60007fffffffff0000000000000000000000000000000000000000000000000000000082169050919050565b6117648161172f565b811461176f57600080fd5b50565b6000813590506117818161175b565b92915050565b60006020828403121561179d5761179c611725565b5b60006117ab84828501611772565b91505092915050565b60008115159050919050565b6117c9816117b4565b82525050565b60006020820190506117e460008301846117c0565b92915050565b6000819050919050565b6117fd816117ea565b82525050565b600060208201905061181860008301846117f4565b92915050565b611827816117ea565b811461183257600080fd5b50565b6000813590506118448161181e565b92915050565b6000602082840312156118605761185f611725565b5b600061186e84828501611835565b91505092915050565b600081519050919050565b600082825260208201905092915050565b60005b838110156118b1578082015181840152602081019050611896565b60008484015250505050565b6000601f19601f8301169050919050565b60006118d982611877565b6118e38185611882565b93506118f3818560208601611893565b6118fc816118bd565b840191505092915050565b6000819050919050565b61191a81611907565b82525050565b600060e082019050818103600083015261193a818a6118ce565b90506119496020830189611911565b6119566040830188611911565b6119636060830187611911565b6119706080830186611911565b61197d60a08301856117c0565b61198a60c08301846117c0565b98975050505050505050565b600073ffffffffffffffffffffffffffffffffffffffff82169050919050565b60006119c182611996565b9050919050565b6119d1816119b6565b81146119dc57600080fd5b50565b6000813590506119ee816119c8565b92915050565b60008060408385031215611a0b57611a0a611725565b5b6000611a1985828601611835565b9250506020611a2a858286016119df565b9150509250929050565b611a3d816119b6565b82525050565b600061012082019050611a59600083018c6117f4565b8181036020830152611a6b818b6118ce565b9050611a7a604083018a611911565b611a876060830189611911565b611a946080830188611911565b611aa160a0830187611911565b611aae60c08301866117c0565b611abb60e08301856117c0565b611ac9610100830184611a34565b9a9950505050505050505050565b611ae0816117b4565b8114611aeb57600080fd5b50565b600081359050611afd81611ad7565b92915050565b611b0c81611907565b8114611b1757600080fd5b50565b600081359050611b2981611b03565b92915050565b600080600060608486031215611b4857611b47611725565b5b6000611b5686828701611835565b9350506020611b6786828701611aee565b9250506040611b7886828701611b1a565b9150509250925092565b6000602082019050611b976000830184611911565b92915050565b6000606082019050611bb260008301866117c0565b611bbf6020830185611911565b611bcc6040830184611911565b949350505050565b6000819050919050565b6000611bf9611bf4611bef84611996565b611bd4565b611996565b9050919050565b6000611c0b82611bde565b9050919050565b6000611c1d82611c00565b9050919050565b611c2d81611c12565b82525050565b6000602082019050611c486000830184611c24565b92915050565b600080fd5b600080fd5b7f4e487b7100000000000000000000000000000000000000000000000000000000600052604160045260246000fd5b611c90826118bd565b810181811067ffffffffffffffff82111715611caf57611cae611c58565b5b80604052505050565b6000611cc261171b565b9050611cce8282611c87565b919050565b600067ffffffffffffffff821115611cee57611ced611c58565b5b611cf7826118bd565b9050602081019050919050565b82818337600083830152505050565b6000611d26611d2184611cd3565b611cb8565b905082815260208101848484011115611d4257611d41611c53565b5b611d4d848285611d04565b509392505050565b600082601f830112611d6a57611d69611c4e565b5b8135611d7a848260208601611d13565b91505092915050565b60008060408385031215611d9a57611d99611725565b5b600083013567ffffffffffffffff811115611db857611db761172a565b5b611dc485828601611d55565b9250506020611dd585828601611b1a565b9150509250929050565b7f506f6c6c20616c7265616479207265736f6c7665640000000000000000000000600082015250565b6000611e15601583611882565b9150611e2082611ddf565b602082019050919050565b60006020820190508181036000830152611e4481611e08565b9050919050565b7f506f6c6c206e6f7420656e646564000000000000000000000000000000000000600082015250565b6000611e81600e83611882565b9150611e8c82611e4b565b602082019050919050565b60006020820190508181036000830152611eb081611e74565b9050919050565b7f4e487b7100000000000000000000000000000000000000000000000000000000600052602260045260246000fd5b60006002820490506001821680611efe57607f821691505b602082108103611f1157611f10611eb7565b5b50919050565b7f416363657373436f6e74726f6c3a2063616e206f6e6c792072656e6f756e636560008201527f20726f6c657320666f722073656c660000000000000000000000000000000000602082015250565b6000611f73602f83611882565b9150611f7e82611f17565b604082019050919050565b60006020820190508181036000830152611fa281611f66565b9050919050565b7f416d6f756e74206d7573742062652067726561746572207468616e2030000000600082015250565b6000611fdf601d83611882565b9150611fea82611fa9565b602082019050919050565b6000602082019050818103600083015261200e81611fd2565b9050919050565b7f506f6c6c20656e64656400000000000000000000000000000000000000000000600082015250565b600061204b600a83611882565b915061205682612015565b602082019050919050565b6000602082019050818103600083015261207a8161203e565b9050919050565b60006060820190506120966000830186611a34565b6120a36020830185611a34565b6120b06040830184611911565b949350505050565b6000815190506120c781611ad7565b92915050565b6000602082840312156120e3576120e2611725565b5b60006120f1848285016120b8565b91505092915050565b7f546f6b656e207472616e73666572206661696c65640000000000000000000000600082015250565b6000612130601583611882565b915061213b826120fa565b602082019050919050565b6000602082019050818103600083015261215f81612123565b9050919050565b7f4e487b7100000000000000000000000000000000000000000000000000000000600052601160045260246000fd5b60006121a082611907565b91506121ab83611907565b92508282019050808211156121c3576121c2612166565b5b92915050565b60006040820190506121de60008301856117c0565b6121eb6020830184611911565b9392505050565b7f4e6f20706f6c6c73206372656174656400000000000000000000000000000000600082015250565b6000612228601083611882565b9150612233826121f2565b602082019050919050565b600060208201905081810360008301526122578161221b565b9050919050565b600061226982611907565b915061227483611907565b925082820390508181111561228c5761228b612166565b5b92915050565b7f4475726174696f6e2065786365656473206d6178696d756d20766f74696e672060008201527f706572696f640000000000000000000000000000000000000000000000000000602082015250565b60006122ee602683611882565b91506122f982612292565b604082019050919050565b6000602082019050818103600083015261231d816122e1565b9050919050565b6000819050919050565b61233f61233a82611907565b612324565b82525050565b600081905092915050565b600061235b82611877565b6123658185612345565b9350612375818560208601611893565b80840191505092915050565b60008160601b9050919050565b600061239982612381565b9050919050565b60006123ab8261238e565b9050919050565b6123c36123be826119b6565b6123a0565b82525050565b60006123d5828661232e565b6020820191506123e58285612350565b91506123f182846123b2565b601482019150819050949350505050565b60008190508160005260206000209050919050565b60006020601f8301049050919050565b600082821b905092915050565b6000600883026124647fffffffffffffffffffffffffffffffffffffffffffffffffffffffffffffffff82612427565b61246e8683612427565b95508019841693508086168417925050509392505050565b60006124a161249c61249784611907565b611bd4565b611907565b9050919050565b6000819050919050565b6124bb83612486565b6124cf6124c7826124a8565b848454612434565b825550505050565b600090565b6124e46124d7565b6124ef8184846124b2565b505050565b5b81811015612513576125086000826124dc565b6001810190506124f5565b5050565b601f8211156125585761252981612402565b61253284612417565b81016020851015612541578190505b61255561254d85612417565b8301826124f4565b50505b505050565b600082821c905092915050565b600061257b6000198460080261255d565b1980831691505092915050565b6000612594838361256a565b9150826002028217905092915050565b6125ad82611877565b67ffffffffffffffff8111156125c6576125c5611c58565b5b6125d08254611ee6565b6125db828285612517565b600060209050601f83116001811461260e57600084156125fc578287015190505b6126068582612588565b86555061266e565b601f19841661261c86612402565b60005b828110156126445784890151825560018201915060208501945060208101905061261f565b86831015612661578489015161265d601f89168261256a565b8355505b6001600288020188555050505b505050505050565b600061268182611907565b91507fffffffffffffffffffffffffffffffffffffffffffffffffffffffffffffffff82036126b3576126b2612166565b5b600182019050919050565b600060608201905081810360008301526126d881866118ce565b90506126e76020830185611911565b6126f46040830184611911565b949350505050565b7f5265656e7472616e637947756172643a207265656e7472616e742063616c6c00600082015250565b6000612732601f83611882565b915061273d826126fc565b602082019050919050565b6000602082019050818103600083015261276181612725565b9050919050565b600061277382611907565b915061277e83611907565b925082820261278c81611907565b915082820484148315176127a3576127a2612166565b5b5092915050565b7f4e487b7100000000000000000000000000000000000000000000000000000000600052601260045260246000fd5b60006127e482611907565b91506127ef83611907565b9250826127ff576127fe6127aa565b5b828204905092915050565b7f416363657373436f6e74726f6c3a206163636f756e7420000000000000000000600082015250565b6000612840601783612345565b915061284b8261280a565b601782019050919050565b7f206973206d697373696e6720726f6c6520000000000000000000000000000000600082015250565b600061288c601183612345565b915061289782612856565b601182019050919050565b60006128ad82612833565b91506128b98285612350565b91506128c48261287f565b91506128d08284612350565b91508190509392505050565b600060208201905081810360008301526128f681846118ce565b905092915050565b7f4e487b7100000000000000000000000000000000000000000000000000000000600052603260045260246000fd5b600061293882611907565b91506000820361294b5761294a612166565b5b600182039050919050565b7f537472696e67733a20686578206c656e67746820696e73756666696369656e74600082015250565b600061298c602083611882565b915061299782612956565b602082019050919050565b600060208201905081810360008301526129bb8161297f565b905091905056fea2646970667358221220e29739627fb877cccae636ec3419fb10f96d211713b884b142c698d4178d883164736f6c63430008130033",
  "linkReferences": {},
  "deployedLinkReferences": {}
}