{
  "_format": "hh-sol-artifact-1",
  "contractName": "VaultManager",
  "sourceName": "contracts/VaultManager.sol",
  "abi": [
    {
      "inputs": [],
      "stateMutability": "nonpayable",
      "type": "constructor"
    },
    {
      "anonymous": false,
      "inputs": [
        {
          "indexed": true,
          "internalType": "address",
          "name": "token",
          "type": "address"
        },
        {
          "indexed": false,
          "internalType": "uint256",
          "name": "amount",
          "type": "uint256"
        }
      ],
      "name": "AssetDeposited",
      "type": "event"
    },
    {
      "anonymous": false,
      "inputs": [
        {
          "indexed": true,
          "internalType": "address",
          "name": "token",
          "type": "address"
        },
        {
          "indexed": false,
          "internalType": "uint256",
          "name": "amount",
          "type": "uint256"
        }
      ],
      "name": "AssetWithdrawn",
      "type": "event"
    },
    {
      "anonymous": false,
      "inputs": [
        {
          "indexed": true,
          "internalType": "bytes32",
          "name": "role",
          "type": "bytes32"
        },
        {
          "indexed": true,
          "internalType": "bytes32",
          "name": "previousAdminRole",
          "type": "bytes32"
        },
        {
          "indexed": true,
          "internalType": "bytes32",
          "name": "newAdminRole",
          "type": "bytes32"
        }
      ],
      "name": "RoleAdminChanged",
      "type": "event"
    },
    {
      "anonymous": false,
      "inputs": [
        {
          "indexed": true,
          "internalType": "bytes32",
          "name": "role",
          "type": "bytes32"
        },
        {
          "indexed": true,
          "internalType": "address",
          "name": "account",
          "type": "address"
        },
        {
          "indexed": true,
          "internalType": "address",
          "name": "sender",
          "type": "address"
        }
      ],
      "name": "RoleGranted",
      "type": "event"
    },
    {
      "anonymous": false,
      "inputs": [
        {
          "indexed": true,
          "internalType": "bytes32",
          "name": "role",
          "type": "bytes32"
        },
        {
          "indexed": true,
          "internalType": "address",
          "name": "account",
          "type": "address"
        },
        {
          "indexed": true,
          "internalType": "address",
          "name": "sender",
          "type": "address"
        }
      ],
      "name": "RoleRevoked",
      "type": "event"
    },
    {
      "anonymous": false,
      "inputs": [
        {
          "indexed": true,
          "internalType": "bytes32",
          "name": "strategyId",
          "type": "bytes32"
        },
        {
          "indexed": false,
          "internalType": "string",
          "name": "name",
          "type": "string"
        },
        {
          "indexed": false,
          "internalType": "address",
          "name": "protocol",
          "type": "address"
        }
      ],
      "name": "StrategyAdded",
      "type": "event"
    },
    {
      "anonymous": false,
      "inputs": [
        {
          "indexed": true,
          "internalType": "bytes32",
          "name": "strategyId",
          "type": "bytes32"
        },
        {
          "indexed": false,
          "internalType": "uint256",
          "name": "allocation",
          "type": "uint256"
        }
      ],
      "name": "StrategyUpdated",
      "type": "event"
    },
    {
      "inputs": [],
      "name": "ADMIN_ROLE",
      "outputs": [
        {
          "internalType": "bytes32",
          "name": "",
          "type": "bytes32"
        }
      ],
      "stateMutability": "view",
      "type": "function"
    },
    {
      "inputs": [],
      "name": "DEFAULT_ADMIN_ROLE",
      "outputs": [
        {
          "internalType": "bytes32",
          "name": "",
          "type": "bytes32"
        }
      ],
      "stateMutability": "view",
      "type": "function"
    },
    {
      "inputs": [],
      "name": "STRATEGY_ROLE",
      "outputs": [
        {
          "internalType": "bytes32",
          "name": "",
          "type": "bytes32"
        }
      ],
      "stateMutability": "view",
      "type": "function"
    },
    {
      "inputs": [
        {
          "internalType": "uint256",
          "name": "",
          "type": "uint256"
        }
      ],
      "name": "activeStrategies",
      "outputs": [
        {
          "internalType": "bytes32",
          "name": "",
          "type": "bytes32"
        }
      ],
      "stateMutability": "view",
      "type": "function"
    },
    {
      "inputs": [
        {
          "internalType": "string",
          "name": "name",
          "type": "string"
        },
        {
          "internalType": "address",
          "name": "protocol",
          "type": "address"
        }
      ],
      "name": "addStrategy",
      "outputs": [
        {
          "internalType": "bytes32",
          "name": "",
          "type": "bytes32"
        }
      ],
      "stateMutability": "nonpayable",
      "type": "function"
    },
    {
      "inputs": [
        {
          "internalType": "address",
          "name": "",
          "type": "address"
        }
      ],
      "name": "assets",
      "outputs": [
        {
          "internalType": "address",
          "name": "token",
          "type": "address"
        },
        {
          "internalType": "uint256",
          "name": "balance",
          "type": "uint256"
        },
        {
          "internalType": "uint256",
          "name": "allocated",
          "type": "uint256"
        }
      ],
      "stateMutability": "view",
      "type": "function"
    },
    {
      "inputs": [
        {
          "internalType": "address",
          "name": "token",
          "type": "address"
        },
        {
          "internalType": "uint256",
          "name": "amount",
          "type": "uint256"
        }
      ],
      "name": "deposit",
      "outputs": [],
      "stateMutability": "nonpayable",
      "type": "function"
    },
    {
      "inputs": [],
      "name": "getActiveStrategies",
      "outputs": [
        {
          "internalType": "bytes32[]",
          "name": "",
          "type": "bytes32[]"
        }
      ],
      "stateMutability": "view",
      "type": "function"
    },
    {
      "inputs": [
        {
          "internalType": "bytes32",
          "name": "role",
          "type": "bytes32"
        }
      ],
      "name": "getRoleAdmin",
      "outputs": [
        {
          "internalType": "bytes32",
          "name": "",
          "type": "bytes32"
        }
      ],
      "stateMutability": "view",
      "type": "function"
    },
    {
      "inputs": [],
      "name": "getTotalValueLocked",
      "outputs": [
        {
          "internalType": "uint256",
          "name": "",
          "type": "uint256"
        }
      ],
      "stateMutability": "view",
      "type": "function"
    },
    {
      "inputs": [],
      "name": "getTreasuryState",
      "outputs": [
        {
          "internalType": "address[]",
          "name": "tokens",
          "type": "address[]"
        },
        {
          "internalType": "uint256[]",
          "name": "balances",
          "type": "uint256[]"
        },
        {
          "internalType": "uint256[]",
          "name": "allocations",
          "type": "uint256[]"
        }
      ],
      "stateMutability": "view",
      "type": "function"
    },
    {
      "inputs": [
        {
          "internalType": "bytes32",
          "name": "role",
          "type": "bytes32"
        },
        {
          "internalType": "address",
          "name": "account",
          "type": "address"
        }
      ],
      "name": "grantRole",
      "outputs": [],
      "stateMutability": "nonpayable",
      "type": "function"
    },
    {
      "inputs": [
        {
          "internalType": "bytes32",
          "name": "role",
          "type": "bytes32"
        },
        {
          "internalType": "address",
          "name": "account",
          "type": "address"
        }
      ],
      "name": "hasRole",
      "outputs": [
        {
          "internalType": "bool",
          "name": "",
          "type": "bool"
        }
      ],
      "stateMutability": "view",
      "type": "function"
    },
    {
      "inputs": [
        {
          "internalType": "bytes32",
          "name": "role",
          "type": "bytes32"
        },
        {
          "internalType": "address",
          "name": "account",
          "type": "address"
        }
      ],
      "name": "renounceRole",
      "outputs": [],
      "stateMutability": "nonpayable",
      "type": "function"
    },
    {
      "inputs": [
        {
          "internalType": "bytes32",
          "name": "role",
          "type": "bytes32"
        },
        {
          "internalType": "address",
          "name": "account",
          "type": "address"
        }
      ],
      "name": "revokeRole",
      "outputs": [],
      "stateMutability": "nonpayable",
      "type": "function"
    },
    {
      "inputs": [
        {
          "internalType": "bytes32",
          "name": "",
          "type": "bytes32"
        }
      ],
      "name": "strategies",
      "outputs": [
        {
          "internalType": "string",
          "name": "name",
          "type": "string"
        },
        {
          "internalType": "address",
          "name": "protocol",
          "type": "address"
        },
        {
          "internalType": "uint256",
          "name": "allocation",
          "type": "uint256"
        },
        {
          "internalType": "bool",
          "name": "active",
          "type": "bool"
        },
        {
          "internalType": "uint256",
          "name": "lastUpdate",
          "type": "uint256"
        }
      ],
      "stateMutability": "view",
      "type": "function"
    },
    {
      "inputs": [
        {
          "internalType": "uint256",
          "name": "",
          "type": "uint256"
        }
      ],
      "name": "supportedTokens",
      "outputs": [
        {
          "internalType": "address",
          "name": "",
          "type": "address"
        }
      ],
      "stateMutability": "view",
      "type": "function"
    },
    {
      "inputs": [
        {
          "internalType": "bytes4",
          "name": "interfaceId",
          "type": "bytes4"
        }
      ],
      "name": "supportsInterface",
      "outputs": [
        {
          "internalType": "bool",
          "name": "",
          "type": "bool"
        }
      ],
      "stateMutability": "view",
      "type": "function"
    },
    {
      "inputs": [
        {
          "internalType": "bytes32",
          "name": "strategyId",
          "type": "bytes32"
        },
        {
          "internalType": "uint256",
          "name": "allocation",
          "type": "uint256"
        },
        {
          "internalType": "bool",
          "name": "active",
          "type": "bool"
        }
      ],
      "name": "updateStrategy",
      "outputs": [],
      "stateMutability": "nonpayable",
      "type": "function"
    },
    {
      "inputs": [
        {
          "internalType": "address",
          "name": "token",
          "type": "address"
        },
        {
          "internalType": "uint256",
          "name": "amount",
          "type": "uint256"
        }
      ],
      "name": "withdraw",
      "outputs": [],
      "stateMutability": "nonpayable",
      "type": "function"
    }
  ],
  "bytecode": "0x60806040523480156200001157600080fd5b50600180819055506200002e6000801b336200006660201b60201c565b620000607fa49807205ce4d355092ef5a8a18f56e8913cf4a201fbe287825b095693c21775336200006660201b60201c565b620001df565b6200007882826200007c60201b60201c565b5050565b6200008e82826200016d60201b60201c565b6200016957600160008084815260200190815260200160002060000160008373ffffffffffffffffffffffffffffffffffffffff1673ffffffffffffffffffffffffffffffffffffffff16815260200190815260200160002060006101000a81548160ff0219169083151502179055506200010e620001d760201b60201c565b73ffffffffffffffffffffffffffffffffffffffff168173ffffffffffffffffffffffffffffffffffffffff16837f2f8788117e7eff1d82e926ec794901d17c78024a50270940304540a733656f0d60405160405180910390a45b5050565b600080600084815260200190815260200160002060000160008373ffffffffffffffffffffffffffffffffffffffff1673ffffffffffffffffffffffffffffffffffffffff16815260200190815260200160002060009054906101000a900460ff16905092915050565b600033905090565b61321380620001ef6000396000f3fe608060405234801561001057600080fd5b506004361061012c5760003560e01c806375b238fc116100ad578063c625562611610071578063c62556261461034b578063cdd5d9dd1461037b578063d547741f146103ab578063f11b8188146103c7578063f3fef3a3146103f95761012c565b806375b238fc1461029157806391d14854146102af578063a217fddf146102df578063b20b2429146102fd578063b26025aa1461032d5761012c565b80633ff34eb9116100f45780633ff34eb9146101e957806347e7ef241461021d578063580b7c2e14610239578063587436e4146102575780636183e404146102755761012c565b806301ffc9a71461013157806323a8bdca14610161578063248a9ca3146101815780632f2ff15d146101b157806336568abe146101cd575b600080fd5b61014b60048036038101906101469190611d81565b610415565b6040516101589190611dc9565b60405180910390f35b61016961048f565b60405161017893929190611f9c565b60405180910390f35b61019b6004803603810190610196919061201e565b6106fa565b6040516101a8919061205a565b60405180910390f35b6101cb60048036038101906101c691906120a1565b610719565b005b6101e760048036038101906101e291906120a1565b61073a565b005b61020360048036038101906101fe919061201e565b6107bd565b60405161021495949392919061218f565b60405180910390f35b61023760048036038101906102329190612215565b6108a8565b005b610241610ba1565b60405161024e919061205a565b60405180910390f35b61025f610bc5565b60405161026c9190612313565b60405180910390f35b61028f600480360381019061028a9190612361565b610c1d565b005b610299610d8e565b6040516102a6919061205a565b60405180910390f35b6102c960048036038101906102c491906120a1565b610db2565b6040516102d69190611dc9565b60405180910390f35b6102e7610e1c565b6040516102f4919061205a565b60405180910390f35b610317600480360381019061031291906123b4565b610e23565b604051610324919061205a565b60405180910390f35b610335610e47565b60405161034291906123e1565b60405180910390f35b610365600480360381019061036091906123b4565b610f0d565b60405161037291906123fc565b60405180910390f35b6103956004803603810190610390919061254c565b610f4c565b6040516103a2919061205a565b60405180910390f35b6103c560048036038101906103c091906120a1565b6111a0565b005b6103e160048036038101906103dc91906125a8565b6111c1565b6040516103f0939291906125d5565b60405180910390f35b610413600480360381019061040e9190612215565b61120b565b005b60007f7965db0b000000000000000000000000000000000000000000000000000000007bffffffffffffffffffffffffffffffffffffffffffffffffffffffff1916827bffffffffffffffffffffffffffffffffffffffffffffffffffffffff191614806104885750610487826113e4565b5b9050919050565b6060806060600060048054905090508067ffffffffffffffff8111156104b8576104b7612421565b5b6040519080825280602002602001820160405280156104e65781602001602082028036833780820191505090505b5093508067ffffffffffffffff81111561050357610502612421565b5b6040519080825280602002602001820160405280156105315781602001602082028036833780820191505090505b5092508067ffffffffffffffff81111561054e5761054d612421565b5b60405190808252806020026020018201604052801561057c5781602001602082028036833780820191505090505b50915060005b818110156106f3576000600482815481106105a05761059f61260c565b5b9060005260206000200160009054906101000a900473ffffffffffffffffffffffffffffffffffffffff169050808683815181106105e1576105e061260c565b5b602002602001019073ffffffffffffffffffffffffffffffffffffffff16908173ffffffffffffffffffffffffffffffffffffffff1681525050600360008273ffffffffffffffffffffffffffffffffffffffff1673ffffffffffffffffffffffffffffffffffffffff168152602001908152602001600020600101548583815181106106715761067061260c565b5b602002602001018181525050600360008273ffffffffffffffffffffffffffffffffffffffff1673ffffffffffffffffffffffffffffffffffffffff168152602001908152602001600020600201548483815181106106d3576106d261260c565b5b6020026020010181815250505080806106eb9061266a565b915050610582565b5050909192565b6000806000838152602001908152602001600020600101549050919050565b610722826106fa565b61072b8161144e565b6107358383611462565b505050565b610742611542565b73ffffffffffffffffffffffffffffffffffffffff168173ffffffffffffffffffffffffffffffffffffffff16146107af576040517f08c379a00000000000000000000000000000000000000000000000000000000081526004016107a690612724565b60405180910390fd5b6107b9828261154a565b5050565b60026020528060005260406000206000915090508060000180546107e090612773565b80601f016020809104026020016040519081016040528092919081815260200182805461080c90612773565b80156108595780601f1061082e57610100808354040283529160200191610859565b820191906000526020600020905b81548152906001019060200180831161083c57829003601f168201915b5050505050908060010160009054906101000a900473ffffffffffffffffffffffffffffffffffffffff16908060020154908060030160009054906101000a900460ff16908060040154905085565b6108b061162b565b600081116108f3576040517f08c379a00000000000000000000000000000000000000000000000000000000081526004016108ea906127f0565b60405180910390fd5b6109203330838573ffffffffffffffffffffffffffffffffffffffff1661167a909392919063ffffffff16565b600073ffffffffffffffffffffffffffffffffffffffff16600360008473ffffffffffffffffffffffffffffffffffffffff1673ffffffffffffffffffffffffffffffffffffffff16815260200190815260200160002060000160009054906101000a900473ffffffffffffffffffffffffffffffffffffffff1673ffffffffffffffffffffffffffffffffffffffff1603610aed5760405180606001604052808373ffffffffffffffffffffffffffffffffffffffff1681526020018281526020016000815250600360008473ffffffffffffffffffffffffffffffffffffffff1673ffffffffffffffffffffffffffffffffffffffff16815260200190815260200160002060008201518160000160006101000a81548173ffffffffffffffffffffffffffffffffffffffff021916908373ffffffffffffffffffffffffffffffffffffffff16021790555060208201518160010155604082015181600201559050506004829080600181540180825580915050600190039060005260206000200160009091909190916101000a81548173ffffffffffffffffffffffffffffffffffffffff021916908373ffffffffffffffffffffffffffffffffffffffff160217905550610b47565b80600360008473ffffffffffffffffffffffffffffffffffffffff1673ffffffffffffffffffffffffffffffffffffffff1681526020019081526020016000206001016000828254610b3f9190612810565b925050819055505b8173ffffffffffffffffffffffffffffffffffffffff167fddc69a07b5bfcee2b68a56a2e28e712c83e6b1372b06f80aaab04dbaca91020f82604051610b8d91906123e1565b60405180910390a2610b9d611703565b5050565b7f928286c473ded01ff8bf61a1986f14a0579066072fa8261442d9fea514d93a4c81565b60606005805480602002602001604051908101604052809291908181526020018280548015610c1357602002820191906000526020600020905b815481526020019060010190808311610bff575b5050505050905090565b7fa49807205ce4d355092ef5a8a18f56e8913cf4a201fbe287825b095693c21775610c478161144e565b600073ffffffffffffffffffffffffffffffffffffffff166002600086815260200190815260200160002060010160009054906101000a900473ffffffffffffffffffffffffffffffffffffffff1673ffffffffffffffffffffffffffffffffffffffff1603610cec576040517f08c379a0000000000000000000000000000000000000000000000000000000008152600401610ce390612890565b60405180910390fd5b826002600086815260200190815260200160002060020181905550816002600086815260200190815260200160002060030160006101000a81548160ff021916908315150217905550426002600086815260200190815260200160002060040181905550837fc6bc77d0a67a88e85b3345ce00ce4e6a27ebbc414083f61df7c19a850cc97a1584604051610d8091906123e1565b60405180910390a250505050565b7fa49807205ce4d355092ef5a8a18f56e8913cf4a201fbe287825b095693c2177581565b600080600084815260200190815260200160002060000160008373ffffffffffffffffffffffffffffffffffffffff1673ffffffffffffffffffffffffffffffffffffffff16815260200190815260200160002060009054906101000a900460ff16905092915050565b6000801b81565b60058181548110610e3357600080fd5b906000526020600020016000915090505481565b6000806000905060005b600480549050811015610f0557600060048281548110610e7457610e7361260c565b5b9060005260206000200160009054906101000a900473ffffffffffffffffffffffffffffffffffffffff169050600360008273ffffffffffffffffffffffffffffffffffffffff1673ffffffffffffffffffffffffffffffffffffffff1681526020019081526020016000206001015483610eef9190612810565b9250508080610efd9061266a565b915050610e51565b508091505090565b60048181548110610f1d57600080fd5b906000526020600020016000915054906101000a900473ffffffffffffffffffffffffffffffffffffffff1681565b60007fa49807205ce4d355092ef5a8a18f56e8913cf4a201fbe287825b095693c21775610f788161144e565b60008484604051602001610f8d929190612934565b604051602081830303815290604052805190602001209050600073ffffffffffffffffffffffffffffffffffffffff166002600083815260200190815260200160002060010160009054906101000a900473ffffffffffffffffffffffffffffffffffffffff1673ffffffffffffffffffffffffffffffffffffffff161461104a576040517f08c379a0000000000000000000000000000000000000000000000000000000008152600401611041906129a8565b60405180910390fd5b6040518060a001604052808681526020018573ffffffffffffffffffffffffffffffffffffffff16815260200160008152602001600115158152602001428152506002600083815260200190815260200160002060008201518160000190816110b39190612b74565b5060208201518160010160006101000a81548173ffffffffffffffffffffffffffffffffffffffff021916908373ffffffffffffffffffffffffffffffffffffffff1602179055506040820151816002015560608201518160030160006101000a81548160ff021916908315150217905550608082015181600401559050506005819080600181540180825580915050600190039060005260206000200160009091909190915055807f0ea7dea385a8a430ffd493be173ccc48417d307276dbc3d948a1261b2b85203b868660405161118d929190612c46565b60405180910390a2809250505092915050565b6111a9826106fa565b6111b28161144e565b6111bc838361154a565b505050565b60036020528060005260406000206000915090508060000160009054906101000a900473ffffffffffffffffffffffffffffffffffffffff16908060010154908060020154905083565b7fa49807205ce4d355092ef5a8a18f56e8913cf4a201fbe287825b095693c217756112358161144e565b61123d61162b565b60008211611280576040517f08c379a0000000000000000000000000000000000000000000000000000000008152600401611277906127f0565b60405180910390fd5b81600360008573ffffffffffffffffffffffffffffffffffffffff1673ffffffffffffffffffffffffffffffffffffffff168152602001908152602001600020600101541015611305576040517f08c379a00000000000000000000000000000000000000000000000000000000081526004016112fc90612cc2565b60405180910390fd5b81600360008573ffffffffffffffffffffffffffffffffffffffff1673ffffffffffffffffffffffffffffffffffffffff16815260200190815260200160002060010160008282546113579190612ce2565b9250508190555061138933838573ffffffffffffffffffffffffffffffffffffffff1661170c9092919063ffffffff16565b8273ffffffffffffffffffffffffffffffffffffffff167f94b055d454fefc95ba06924afbaac83912b1575d621a7d32a4675303246bb7d0836040516113cf91906123e1565b60405180910390a26113df611703565b505050565b60007f01ffc9a7000000000000000000000000000000000000000000000000000000007bffffffffffffffffffffffffffffffffffffffffffffffffffffffff1916827bffffffffffffffffffffffffffffffffffffffffffffffffffffffff1916149050919050565b61145f8161145a611542565b611792565b50565b61146c8282610db2565b61153e57600160008084815260200190815260200160002060000160008373ffffffffffffffffffffffffffffffffffffffff1673ffffffffffffffffffffffffffffffffffffffff16815260200190815260200160002060006101000a81548160ff0219169083151502179055506114e3611542565b73ffffffffffffffffffffffffffffffffffffffff168173ffffffffffffffffffffffffffffffffffffffff16837f2f8788117e7eff1d82e926ec794901d17c78024a50270940304540a733656f0d60405160405180910390a45b5050565b600033905090565b6115548282610db2565b1561162757600080600084815260200190815260200160002060000160008373ffffffffffffffffffffffffffffffffffffffff1673ffffffffffffffffffffffffffffffffffffffff16815260200190815260200160002060006101000a81548160ff0219169083151502179055506115cc611542565b73ffffffffffffffffffffffffffffffffffffffff168173ffffffffffffffffffffffffffffffffffffffff16837ff6391f5c32d9c69d2a47ea670b442974b53935d1edc7fd64eb21e047a839171b60405160405180910390a45b5050565b600260015403611670576040517f08c379a000000000000000000000000000000000000000000000000000000000815260040161166790612d62565b60405180910390fd5b6002600181905550565b6116fd846323b872dd60e01b85858560405160240161169b93929190612d82565b604051602081830303815290604052907bffffffffffffffffffffffffffffffffffffffffffffffffffffffff19166020820180517bffffffffffffffffffffffffffffffffffffffffffffffffffffffff8381831617835250505050611817565b50505050565b60018081905550565b61178d8363a9059cbb60e01b848460405160240161172b929190612db9565b604051602081830303815290604052907bffffffffffffffffffffffffffffffffffffffffffffffffffffffff19166020820180517bffffffffffffffffffffffffffffffffffffffffffffffffffffffff8381831617835250505050611817565b505050565b61179c8282610db2565b611813576117a9816118df565b6117b78360001c602061190c565b6040516020016117c8929190612e7a565b6040516020818303038152906040526040517f08c379a000000000000000000000000000000000000000000000000000000000815260040161180a9190612eb4565b60405180910390fd5b5050565b6000611879826040518060400160405280602081526020017f5361666545524332303a206c6f772d6c6576656c2063616c6c206661696c65648152508573ffffffffffffffffffffffffffffffffffffffff16611b489092919063ffffffff16565b905060008151148061189b57508080602001905181019061189a9190612eeb565b5b6118da576040517f08c379a00000000000000000000000000000000000000000000000000000000081526004016118d190612f8a565b60405180910390fd5b505050565b60606119058273ffffffffffffffffffffffffffffffffffffffff16601460ff1661190c565b9050919050565b60606000600283600261191f9190612faa565b6119299190612810565b67ffffffffffffffff81111561194257611941612421565b5b6040519080825280601f01601f1916602001820160405280156119745781602001600182028036833780820191505090505b5090507f3000000000000000000000000000000000000000000000000000000000000000816000815181106119ac576119ab61260c565b5b60200101907effffffffffffffffffffffffffffffffffffffffffffffffffffffffffffff1916908160001a9053507f780000000000000000000000000000000000000000000000000000000000000081600181518110611a1057611a0f61260c565b5b60200101907effffffffffffffffffffffffffffffffffffffffffffffffffffffffffffff1916908160001a90535060006001846002611a509190612faa565b611a5a9190612810565b90505b6001811115611afa577f3031323334353637383961626364656600000000000000000000000000000000600f861660108110611a9c57611a9b61260c565b5b1a60f81b828281518110611ab357611ab261260c565b5b60200101907effffffffffffffffffffffffffffffffffffffffffffffffffffffffffffff1916908160001a905350600485901c945080611af390612fec565b9050611a5d565b5060008414611b3e576040517f08c379a0000000000000000000000000000000000000000000000000000000008152600401611b3590613061565b60405180910390fd5b8091505092915050565b6060611b578484600085611b60565b90509392505050565b606082471015611ba5576040517f08c379a0000000000000000000000000000000000000000000000000000000008152600401611b9c906130f3565b60405180910390fd5b6000808673ffffffffffffffffffffffffffffffffffffffff168587604051611bce919061315a565b60006040518083038185875af1925050503d8060008114611c0b576040519150601f19603f3d011682016040523d82523d6000602084013e611c10565b606091505b5091509150611c2187838387611c2d565b92505050949350505050565b60608315611c8f576000835103611c8757611c4785611ca2565b611c86576040517f08c379a0000000000000000000000000000000000000000000000000000000008152600401611c7d906131bd565b60405180910390fd5b5b829050611c9a565b611c998383611cc5565b5b949350505050565b6000808273ffffffffffffffffffffffffffffffffffffffff163b119050919050565b600082511115611cd85781518083602001fd5b806040517f08c379a0000000000000000000000000000000000000000000000000000000008152600401611d0c9190612eb4565b60405180910390fd5b6000604051905090565b600080fd5b600080fd5b60007fffffffff0000000000000000000000000000000000000000000000000000000082169050919050565b611d5e81611d29565b8114611d6957600080fd5b50565b600081359050611d7b81611d55565b92915050565b600060208284031215611d9757611d96611d1f565b5b6000611da584828501611d6c565b91505092915050565b60008115159050919050565b611dc381611dae565b82525050565b6000602082019050611dde6000830184611dba565b92915050565b600081519050919050565b600082825260208201905092915050565b6000819050602082019050919050565b600073ffffffffffffffffffffffffffffffffffffffff82169050919050565b6000611e3b82611e10565b9050919050565b611e4b81611e30565b82525050565b6000611e5d8383611e42565b60208301905092915050565b6000602082019050919050565b6000611e8182611de4565b611e8b8185611def565b9350611e9683611e00565b8060005b83811015611ec7578151611eae8882611e51565b9750611eb983611e69565b925050600181019050611e9a565b5085935050505092915050565b600081519050919050565b600082825260208201905092915050565b6000819050602082019050919050565b6000819050919050565b611f1381611f00565b82525050565b6000611f258383611f0a565b60208301905092915050565b6000602082019050919050565b6000611f4982611ed4565b611f538185611edf565b9350611f5e83611ef0565b8060005b83811015611f8f578151611f768882611f19565b9750611f8183611f31565b925050600181019050611f62565b5085935050505092915050565b60006060820190508181036000830152611fb68186611e76565b90508181036020830152611fca8185611f3e565b90508181036040830152611fde8184611f3e565b9050949350505050565b6000819050919050565b611ffb81611fe8565b811461200657600080fd5b50565b60008135905061201881611ff2565b92915050565b60006020828403121561203457612033611d1f565b5b600061204284828501612009565b91505092915050565b61205481611fe8565b82525050565b600060208201905061206f600083018461204b565b92915050565b61207e81611e30565b811461208957600080fd5b50565b60008135905061209b81612075565b92915050565b600080604083850312156120b8576120b7611d1f565b5b60006120c685828601612009565b92505060206120d78582860161208c565b9150509250929050565b600081519050919050565b600082825260208201905092915050565b60005b8381101561211b578082015181840152602081019050612100565b60008484015250505050565b6000601f19601f8301169050919050565b6000612143826120e1565b61214d81856120ec565b935061215d8185602086016120fd565b61216681612127565b840191505092915050565b61217a81611e30565b82525050565b61218981611f00565b82525050565b600060a08201905081810360008301526121a98188612138565b90506121b86020830187612171565b6121c56040830186612180565b6121d26060830185611dba565b6121df6080830184612180565b9695505050505050565b6121f281611f00565b81146121fd57600080fd5b50565b60008135905061220f816121e9565b92915050565b6000806040838503121561222c5761222b611d1f565b5b600061223a8582860161208c565b925050602061224b85828601612200565b9150509250929050565b600081519050919050565b600082825260208201905092915050565b6000819050602082019050919050565b61228a81611fe8565b82525050565b600061229c8383612281565b60208301905092915050565b6000602082019050919050565b60006122c082612255565b6122ca8185612260565b93506122d583612271565b8060005b838110156123065781516122ed8882612290565b97506122f8836122a8565b9250506001810190506122d9565b5085935050505092915050565b6000602082019050818103600083015261232d81846122b5565b905092915050565b61233e81611dae565b811461234957600080fd5b50565b60008135905061235b81612335565b92915050565b60008060006060848603121561237a57612379611d1f565b5b600061238886828701612009565b935050602061239986828701612200565b92505060406123aa8682870161234c565b9150509250925092565b6000602082840312156123ca576123c9611d1f565b5b60006123d884828501612200565b91505092915050565b60006020820190506123f66000830184612180565b92915050565b60006020820190506124116000830184612171565b92915050565b600080fd5b600080fd5b7f4e487b7100000000000000000000000000000000000000000000000000000000600052604160045260246000fd5b61245982612127565b810181811067ffffffffffffffff8211171561247857612477612421565b5b80604052505050565b600061248b611d15565b90506124978282612450565b919050565b600067ffffffffffffffff8211156124b7576124b6612421565b5b6124c082612127565b9050602081019050919050565b82818337600083830152505050565b60006124ef6124ea8461249c565b612481565b90508281526020810184848401111561250b5761250a61241c565b5b6125168482856124cd565b509392505050565b600082601f83011261253357612532612417565b5b81356125438482602086016124dc565b91505092915050565b6000806040838503121561256357612562611d1f565b5b600083013567ffffffffffffffff81111561258157612580611d24565b5b61258d8582860161251e565b925050602061259e8582860161208c565b9150509250929050565b6000602082840312156125be576125bd611d1f565b5b60006125cc8482850161208c565b91505092915050565b60006060820190506125ea6000830186612171565b6125f76020830185612180565b6126046040830184612180565b949350505050565b7f4e487b7100000000000000000000000000000000000000000000000000000000600052603260045260246000fd5b7f4e487b7100000000000000000000000000000000000000000000000000000000600052601160045260246000fd5b600061267582611f00565b91507fffffffffffffffffffffffffffffffffffffffffffffffffffffffffffffffff82036126a7576126a661263b565b5b600182019050919050565b7f416363657373436f6e74726f6c3a2063616e206f6e6c792072656e6f756e636560008201527f20726f6c657320666f722073656c660000000000000000000000000000000000602082015250565b600061270e602f836120ec565b9150612719826126b2565b604082019050919050565b6000602082019050818103600083015261273d81612701565b9050919050565b7f4e487b7100000000000000000000000000000000000000000000000000000000600052602260045260246000fd5b6000600282049050600182168061278b57607f821691505b60208210810361279e5761279d612744565b5b50919050565b7f416d6f756e74206d7573742062652067726561746572207468616e2030000000600082015250565b60006127da601d836120ec565b91506127e5826127a4565b602082019050919050565b60006020820190508181036000830152612809816127cd565b9050919050565b600061281b82611f00565b915061282683611f00565b925082820190508082111561283e5761283d61263b565b5b92915050565b7f537472617465677920646f6573206e6f74206578697374000000000000000000600082015250565b600061287a6017836120ec565b915061288582612844565b602082019050919050565b600060208201905081810360008301526128a98161286d565b9050919050565b600081905092915050565b60006128c6826120e1565b6128d081856128b0565b93506128e08185602086016120fd565b80840191505092915050565b60008160601b9050919050565b6000612904826128ec565b9050919050565b6000612916826128f9565b9050919050565b61292e61292982611e30565b61290b565b82525050565b600061294082856128bb565b915061294c828461291d565b6014820191508190509392505050565b7f537472617465677920616c726561647920657869737473000000000000000000600082015250565b60006129926017836120ec565b915061299d8261295c565b602082019050919050565b600060208201905081810360008301526129c181612985565b9050919050565b60008190508160005260206000209050919050565b60006020601f8301049050919050565b600082821b905092915050565b600060088302612a2a7fffffffffffffffffffffffffffffffffffffffffffffffffffffffffffffffff826129ed565b612a3486836129ed565b95508019841693508086168417925050509392505050565b6000819050919050565b6000612a71612a6c612a6784611f00565b612a4c565b611f00565b9050919050565b6000819050919050565b612a8b83612a56565b612a9f612a9782612a78565b8484546129fa565b825550505050565b600090565b612ab4612aa7565b612abf818484612a82565b505050565b5b81811015612ae357612ad8600082612aac565b600181019050612ac5565b5050565b601f821115612b2857612af9816129c8565b612b02846129dd565b81016020851015612b11578190505b612b25612b1d856129dd565b830182612ac4565b50505b505050565b600082821c905092915050565b6000612b4b60001984600802612b2d565b1980831691505092915050565b6000612b648383612b3a565b9150826002028217905092915050565b612b7d826120e1565b67ffffffffffffffff811115612b9657612b95612421565b5b612ba08254612773565b612bab828285612ae7565b600060209050601f831160018114612bde5760008415612bcc578287015190505b612bd68582612b58565b865550612c3e565b601f198416612bec866129c8565b60005b82811015612c1457848901518255600182019150602085019450602081019050612bef565b86831015612c315784890151612c2d601f891682612b3a565b8355505b6001600288020188555050505b505050505050565b60006040820190508181036000830152612c608185612138565b9050612c6f6020830184612171565b9392505050565b7f496e73756666696369656e742062616c616e6365000000000000000000000000600082015250565b6000612cac6014836120ec565b9150612cb782612c76565b602082019050919050565b60006020820190508181036000830152612cdb81612c9f565b9050919050565b6000612ced82611f00565b9150612cf883611f00565b9250828203905081811115612d1057612d0f61263b565b5b92915050565b7f5265656e7472616e637947756172643a207265656e7472616e742063616c6c00600082015250565b6000612d4c601f836120ec565b9150612d5782612d16565b602082019050919050565b60006020820190508181036000830152612d7b81612d3f565b9050919050565b6000606082019050612d976000830186612171565b612da46020830185612171565b612db16040830184612180565b949350505050565b6000604082019050612dce6000830185612171565b612ddb6020830184612180565b9392505050565b7f416363657373436f6e74726f6c3a206163636f756e7420000000000000000000600082015250565b6000612e186017836128b0565b9150612e2382612de2565b601782019050919050565b7f206973206d697373696e6720726f6c6520000000000000000000000000000000600082015250565b6000612e646011836128b0565b9150612e6f82612e2e565b601182019050919050565b6000612e8582612e0b565b9150612e9182856128bb565b9150612e9c82612e57565b9150612ea882846128bb565b91508190509392505050565b60006020820190508181036000830152612ece8184612138565b905092915050565b600081519050612ee581612335565b92915050565b600060208284031215612f0157612f00611d1f565b5b6000612f0f84828501612ed6565b91505092915050565b7f5361666545524332303a204552433230206f7065726174696f6e20646964206e60008201527f6f74207375636365656400000000000000000000000000000000000000000000602082015250565b6000612f74602a836120ec565b9150612f7f82612f18565b604082019050919050565b60006020820190508181036000830152612fa381612f67565b9050919050565b6000612fb582611f00565b9150612fc083611f00565b9250828202612fce81611f00565b91508282048414831517612fe557612fe461263b565b5b5092915050565b6000612ff782611f00565b91506000820361300a5761300961263b565b5b600182039050919050565b7f537472696e67733a20686578206c656e67746820696e73756666696369656e74600082015250565b600061304b6020836120ec565b915061305682613015565b602082019050919050565b6000602082019050818103600083015261307a8161303e565b9050919050565b7f416464726573733a20696e73756666696369656e742062616c616e636520666f60008201527f722063616c6c0000000000000000000000000000000000000000000000000000602082015250565b60006130dd6026836120ec565b91506130e882613081565b604082019050919050565b6000602082019050818103600083015261310c816130d0565b9050919050565b600081519050919050565b600081905092915050565b600061313482613113565b61313e818561311e565b935061314e8185602086016120fd565b80840191505092915050565b60006131668284613129565b915081905092915050565b7f416464726573733a2063616c6c20746f206e6f6e2d636f6e7472616374000000600082015250565b60006131a7601d836120ec565b91506131b282613171565b602082019050919050565b600060208201905081810360008301526131d68161319a565b905091905056fea26469706673582212207c9c88ad05e92e1cbbd08a4887353674dffd66908e53215cc4142a415c67a99564736f6c63430008130033",
  "linkReferences": {},
  "deployedLinkReferences": {}
}